{"abi":[{"type":"function","name":"buyNFT","inputs":[{"name":"tokenId","type":"uint256","internalType":"uint256"}],"outputs":[],"stateMutability":"payable"},{"type":"function","name":"consign","inputs":[{"name":"tokenId","type":"uint256","internalType":"uint256"},{"name":"price","type":"uint256","internalType":"uint256"},{"name":"add","type":"address","internalType":"address"}],"outputs":[],"stateMutability":"nonpayable"},{"type":"function","name":"getItem","inputs":[{"name":"id","type":"uint256","internalType":"uint256"}],"outputs":[{"name":"","type":"tuple","internalType":"struct NFTMarket.Item","components":[{"name":"owner","type":"address","internalType":"address"},{"name":"tokenId","type":"uint256","internalType":"uint256"},{"name":"price","type":"uint256","internalType":"uint256"},{"name":"sell","type":"bool","internalType":"bool"}]}],"stateMutability":"view"},{"type":"function","name":"list","inputs":[{"name":"","type":"uint256","internalType":"uint256"}],"outputs":[{"name":"owner","type":"address","internalType":"address"},{"name":"tokenId","type":"uint256","internalType":"uint256"},{"name":"price","type":"uint256","internalType":"uint256"},{"name":"sell","type":"bool","internalType":"bool"}],"stateMutability":"view"},{"type":"function","name":"updateConsign","inputs":[{"name":"tokenId","type":"uint256","internalType":"uint256"},{"name":"price","type":"uint256","internalType":"uint256"},{"name":"add","type":"address","internalType":"address"},{"name":"_sell","type":"bool","internalType":"bool"}],"outputs":[],"stateMutability":"nonpayable"}],"bytecode":{"object":"0x608060405234801561000f575f80fd5b50610d9d8061001d5f395ff3fe608060405260043610610049575f3560e01c80630d465a0a1461004d5780633129e7731461007557806351ed8288146100b157806380c9419e146100cd578063fd1048661461010c575b5f80fd5b348015610058575f80fd5b50610073600480360381019061006e9190610984565b610134565b005b348015610080575f80fd5b5061009b600480360381019061009691906109d4565b610330565b6040516100a89190610a8a565b60405180910390f35b6100cb60048036038101906100c691906109d4565b6103dc565b005b3480156100d8575f80fd5b506100f360048036038101906100ee91906109d4565b610665565b6040516101039493929190610ad0565b60405180910390f35b348015610117575f80fd5b50610132600480360381019061012d9190610b3d565b6106bb565b005b5f8211610176576040517f08c379a000000000000000000000000000000000000000000000000000000000815260040161016d90610bfb565b60405180910390fd5b3373ffffffffffffffffffffffffffffffffffffffff168173ffffffffffffffffffffffffffffffffffffffff16636352211e856040518263ffffffff1660e01b81526004016101c69190610c19565b602060405180830381865afa1580156101e1573d5f803e3d5ffd5b505050506040513d601f19601f820116820180604052508101906102059190610c46565b73ffffffffffffffffffffffffffffffffffffffff161461025b576040517f08c379a000000000000000000000000000000000000000000000000000000000815260040161025290610ce1565b60405180910390fd5b6102636108b7565b60405180608001604052803373ffffffffffffffffffffffffffffffffffffffff168152602001858152602001848152602001600115158152509050805f808681526020019081526020015f205f820151815f015f6101000a81548173ffffffffffffffffffffffffffffffffffffffff021916908373ffffffffffffffffffffffffffffffffffffffff16021790555060208201518160010155604082015181600201556060820151816003015f6101000a81548160ff02191690831515021790555090505050505050565b6103386108b7565b5f808381526020019081526020015f206040518060800160405290815f82015f9054906101000a900473ffffffffffffffffffffffffffffffffffffffff1673ffffffffffffffffffffffffffffffffffffffff1673ffffffffffffffffffffffffffffffffffffffff1681526020016001820154815260200160028201548152602001600382015f9054906101000a900460ff1615151515815250509050919050565b5f341161041e576040517f08c379a000000000000000000000000000000000000000000000000000000000815260040161041590610bfb565b60405180910390fd5b5f805f8381526020019081526020015f206040518060800160405290815f82015f9054906101000a900473ffffffffffffffffffffffffffffffffffffffff1673ffffffffffffffffffffffffffffffffffffffff1673ffffffffffffffffffffffffffffffffffffffff1681526020016001820154815260200160028201548152602001600382015f9054906101000a900460ff16151515158152505090505f808381526020019081526020015f205f8082015f6101000a81549073ffffffffffffffffffffffffffffffffffffffff0219169055600182015f9055600282015f9055600382015f6101000a81549060ff021916905550505f815f015173ffffffffffffffffffffffffffffffffffffffff166108fc3490811502906040515f60405180830381858888f19350505050905080610591576040517f08c379a000000000000000000000000000000000000000000000000000000000815260040161058890610d49565b60405180910390fd5b6105996108b7565b60405180608001604052803373ffffffffffffffffffffffffffffffffffffffff1681526020018581526020015f81526020015f15158152509050805f808681526020019081526020015f205f820151815f015f6101000a81548173ffffffffffffffffffffffffffffffffffffffff021916908373ffffffffffffffffffffffffffffffffffffffff16021790555060208201518160010155604082015181600201556060820151816003015f6101000a81548160ff02191690831515021790555090505050505050565b5f602052805f5260405f205f91509050805f015f9054906101000a900473ffffffffffffffffffffffffffffffffffffffff1690806001015490806002015490806003015f9054906101000a900460ff16905084565b5f83116106fd576040517f08c379a00000000000000000000000000000000000000000000000000000000081526004016106f490610bfb565b60405180910390fd5b3373ffffffffffffffffffffffffffffffffffffffff168273ffffffffffffffffffffffffffffffffffffffff16636352211e866040518263ffffffff1660e01b815260040161074d9190610c19565b602060405180830381865afa158015610768573d5f803e3d5ffd5b505050506040513d601f19601f8201168201806040525081019061078c9190610c46565b73ffffffffffffffffffffffffffffffffffffffff16146107e2576040517f08c379a00000000000000000000000000000000000000000000000000000000081526004016107d990610ce1565b60405180910390fd5b6107ea6108b7565b60405180608001604052803373ffffffffffffffffffffffffffffffffffffffff1681526020018681526020018581526020018315158152509050805f808781526020019081526020015f205f820151815f015f6101000a81548173ffffffffffffffffffffffffffffffffffffffff021916908373ffffffffffffffffffffffffffffffffffffffff16021790555060208201518160010155604082015181600201556060820151816003015f6101000a81548160ff0219169083151502179055509050505050505050565b60405180608001604052805f73ffffffffffffffffffffffffffffffffffffffff1681526020015f81526020015f81526020015f151581525090565b5f80fd5b5f819050919050565b610909816108f7565b8114610913575f80fd5b50565b5f8135905061092481610900565b92915050565b5f73ffffffffffffffffffffffffffffffffffffffff82169050919050565b5f6109538261092a565b9050919050565b61096381610949565b811461096d575f80fd5b50565b5f8135905061097e8161095a565b92915050565b5f805f6060848603121561099b5761099a6108f3565b5b5f6109a886828701610916565b93505060206109b986828701610916565b92505060406109ca86828701610970565b9150509250925092565b5f602082840312156109e9576109e86108f3565b5b5f6109f684828501610916565b91505092915050565b610a0881610949565b82525050565b610a17816108f7565b82525050565b5f8115159050919050565b610a3181610a1d565b82525050565b608082015f820151610a4b5f8501826109ff565b506020820151610a5e6020850182610a0e565b506040820151610a716040850182610a0e565b506060820151610a846060850182610a28565b50505050565b5f608082019050610a9d5f830184610a37565b92915050565b610aac81610949565b82525050565b610abb816108f7565b82525050565b610aca81610a1d565b82525050565b5f608082019050610ae35f830187610aa3565b610af06020830186610ab2565b610afd6040830185610ab2565b610b0a6060830184610ac1565b95945050505050565b610b1c81610a1d565b8114610b26575f80fd5b50565b5f81359050610b3781610b13565b92915050565b5f805f8060808587031215610b5557610b546108f3565b5b5f610b6287828801610916565b9450506020610b7387828801610916565b9350506040610b8487828801610970565b9250506060610b9587828801610b29565b91505092959194509250565b5f82825260208201905092915050565b7f7072696365206d75737420626520626967676572207468616e203000000000005f82015250565b5f610be5601b83610ba1565b9150610bf082610bb1565b602082019050919050565b5f6020820190508181035f830152610c1281610bd9565b9050919050565b5f602082019050610c2c5f830184610ab2565b92915050565b5f81519050610c408161095a565b92915050565b5f60208284031215610c5b57610c5a6108f3565b5b5f610c6884828501610c32565b91505092915050565b7f436f6e7472616374206e6f7420617070726f76656420746f207472616e7366655f8201527f72207468697320746f6b656e0000000000000000000000000000000000000000602082015250565b5f610ccb602c83610ba1565b9150610cd682610c71565b604082019050919050565b5f6020820190508181035f830152610cf881610cbf565b9050919050565b7f73656e64206d6f6e6579206661696c65640000000000000000000000000000005f82015250565b5f610d33601183610ba1565b9150610d3e82610cff565b602082019050919050565b5f6020820190508181035f830152610d6081610d27565b905091905056fea2646970667358221220288a228fe46c3c3b8fca8d2c05b30e5fee215a3bf36e528823b4cd5a412899de64736f6c63430008140033","linkReferences":{}},"methodIdentifiers":{"buyNFT(uint256)":"51ed8288","consign(uint256,uint256,address)":"0d465a0a","getItem(uint256)":"3129e773","list(uint256)":"80c9419e","updateConsign(uint256,uint256,address,bool)":"fd104866"},"id":35}