{"abi":[{"type":"constructor","inputs":[{"name":"initialOwner","type":"address","internalType":"address"}],"stateMutability":"nonpayable"},{"type":"function","name":"_tokenId","inputs":[],"outputs":[{"name":"","type":"uint256","internalType":"uint256"}],"stateMutability":"view"},{"type":"function","name":"approve","inputs":[{"name":"to","type":"address","internalType":"address"},{"name":"tokenId","type":"uint256","internalType":"uint256"}],"outputs":[],"stateMutability":"nonpayable"},{"type":"function","name":"balanceOf","inputs":[{"name":"owner","type":"address","internalType":"address"}],"outputs":[{"name":"","type":"uint256","internalType":"uint256"}],"stateMutability":"view"},{"type":"function","name":"getApproved","inputs":[{"name":"tokenId","type":"uint256","internalType":"uint256"}],"outputs":[{"name":"","type":"address","internalType":"address"}],"stateMutability":"view"},{"type":"function","name":"isApprovedForAll","inputs":[{"name":"owner","type":"address","internalType":"address"},{"name":"operator","type":"address","internalType":"address"}],"outputs":[{"name":"","type":"bool","internalType":"bool"}],"stateMutability":"view"},{"type":"function","name":"name","inputs":[],"outputs":[{"name":"","type":"string","internalType":"string"}],"stateMutability":"view"},{"type":"function","name":"owner","inputs":[],"outputs":[{"name":"","type":"address","internalType":"address"}],"stateMutability":"view"},{"type":"function","name":"ownerOf","inputs":[{"name":"tokenId","type":"uint256","internalType":"uint256"}],"outputs":[{"name":"","type":"address","internalType":"address"}],"stateMutability":"view"},{"type":"function","name":"renounceOwnership","inputs":[],"outputs":[],"stateMutability":"nonpayable"},{"type":"function","name":"safeMint","inputs":[{"name":"to","type":"address","internalType":"address"},{"name":"uri","type":"string","internalType":"string"}],"outputs":[{"name":"","type":"uint256","internalType":"uint256"}],"stateMutability":"nonpayable"},{"type":"function","name":"safeTransferFrom","inputs":[{"name":"from","type":"address","internalType":"address"},{"name":"to","type":"address","internalType":"address"},{"name":"tokenId","type":"uint256","internalType":"uint256"}],"outputs":[],"stateMutability":"nonpayable"},{"type":"function","name":"safeTransferFrom","inputs":[{"name":"from","type":"address","internalType":"address"},{"name":"to","type":"address","internalType":"address"},{"name":"tokenId","type":"uint256","internalType":"uint256"},{"name":"data","type":"bytes","internalType":"bytes"}],"outputs":[],"stateMutability":"nonpayable"},{"type":"function","name":"setApprovalForAll","inputs":[{"name":"operator","type":"address","internalType":"address"},{"name":"approved","type":"bool","internalType":"bool"}],"outputs":[],"stateMutability":"nonpayable"},{"type":"function","name":"supportsInterface","inputs":[{"name":"interfaceId","type":"bytes4","internalType":"bytes4"}],"outputs":[{"name":"","type":"bool","internalType":"bool"}],"stateMutability":"view"},{"type":"function","name":"symbol","inputs":[],"outputs":[{"name":"","type":"string","internalType":"string"}],"stateMutability":"view"},{"type":"function","name":"tokenURI","inputs":[{"name":"tokenId","type":"uint256","internalType":"uint256"}],"outputs":[{"name":"","type":"string","internalType":"string"}],"stateMutability":"view"},{"type":"function","name":"transferFrom","inputs":[{"name":"from","type":"address","internalType":"address"},{"name":"to","type":"address","internalType":"address"},{"name":"tokenId","type":"uint256","internalType":"uint256"}],"outputs":[],"stateMutability":"nonpayable"},{"type":"function","name":"transferOwnership","inputs":[{"name":"newOwner","type":"address","internalType":"address"}],"outputs":[],"stateMutability":"nonpayable"},{"type":"event","name":"Approval","inputs":[{"name":"owner","type":"address","indexed":true,"internalType":"address"},{"name":"approved","type":"address","indexed":true,"internalType":"address"},{"name":"tokenId","type":"uint256","indexed":true,"internalType":"uint256"}],"anonymous":false},{"type":"event","name":"ApprovalForAll","inputs":[{"name":"owner","type":"address","indexed":true,"internalType":"address"},{"name":"operator","type":"address","indexed":true,"internalType":"address"},{"name":"approved","type":"bool","indexed":false,"internalType":"bool"}],"anonymous":false},{"type":"event","name":"BatchMetadataUpdate","inputs":[{"name":"_fromTokenId","type":"uint256","indexed":false,"internalType":"uint256"},{"name":"_toTokenId","type":"uint256","indexed":false,"internalType":"uint256"}],"anonymous":false},{"type":"event","name":"MetadataUpdate","inputs":[{"name":"_tokenId","type":"uint256","indexed":false,"internalType":"uint256"}],"anonymous":false},{"type":"event","name":"OwnershipTransferred","inputs":[{"name":"previousOwner","type":"address","indexed":true,"internalType":"address"},{"name":"newOwner","type":"address","indexed":true,"internalType":"address"}],"anonymous":false},{"type":"event","name":"Transfer","inputs":[{"name":"from","type":"address","indexed":true,"internalType":"address"},{"name":"to","type":"address","indexed":true,"internalType":"address"},{"name":"tokenId","type":"uint256","indexed":true,"internalType":"uint256"}],"anonymous":false},{"type":"error","name":"ERC721IncorrectOwner","inputs":[{"name":"sender","type":"address","internalType":"address"},{"name":"tokenId","type":"uint256","internalType":"uint256"},{"name":"owner","type":"address","internalType":"address"}]},{"type":"error","name":"ERC721InsufficientApproval","inputs":[{"name":"operator","type":"address","internalType":"address"},{"name":"tokenId","type":"uint256","internalType":"uint256"}]},{"type":"error","name":"ERC721InvalidApprover","inputs":[{"name":"approver","type":"address","internalType":"address"}]},{"type":"error","name":"ERC721InvalidOperator","inputs":[{"name":"operator","type":"address","internalType":"address"}]},{"type":"error","name":"ERC721InvalidOwner","inputs":[{"name":"owner","type":"address","internalType":"address"}]},{"type":"error","name":"ERC721InvalidReceiver","inputs":[{"name":"receiver","type":"address","internalType":"address"}]},{"type":"error","name":"ERC721InvalidSender","inputs":[{"name":"sender","type":"address","internalType":"address"}]},{"type":"error","name":"ERC721NonexistentToken","inputs":[{"name":"tokenId","type":"uint256","internalType":"uint256"}]},{"type":"error","name":"OwnableInvalidOwner","inputs":[{"name":"owner","type":"address","internalType":"address"}]},{"type":"error","name":"OwnableUnauthorizedAccount","inputs":[{"name":"account","type":"address","internalType":"address"}]}],"bytecode":{"object":"0x60806040523480156200001157600080fd5b5060405162002d2238038062002d22833981810160405281019062000037919062000288565b806040518060400160405280600781526020017f566f7563686572000000000000000000000000000000000000000000000000008152506040518060400160405280600381526020017f56434600000000000000000000000000000000000000000000000000000000008152508160009081620000b5919062000534565b508060019081620000c7919062000534565b505050600073ffffffffffffffffffffffffffffffffffffffff168173ffffffffffffffffffffffffffffffffffffffff16036200013f5760006040517f1e4fbdf70000000000000000000000000000000000000000000000000000000081526004016200013691906200062c565b60405180910390fd5b62000150816200015860201b60201c565b505062000649565b6000600760009054906101000a900473ffffffffffffffffffffffffffffffffffffffff16905081600760006101000a81548173ffffffffffffffffffffffffffffffffffffffff021916908373ffffffffffffffffffffffffffffffffffffffff1602179055508173ffffffffffffffffffffffffffffffffffffffff168173ffffffffffffffffffffffffffffffffffffffff167f8be0079c531659141344cd1fd0a4f28419497f9722a3daafe3b4186f6b6457e060405160405180910390a35050565b600080fd5b600073ffffffffffffffffffffffffffffffffffffffff82169050919050565b6000620002508262000223565b9050919050565b620002628162000243565b81146200026e57600080fd5b50565b600081519050620002828162000257565b92915050565b600060208284031215620002a157620002a06200021e565b5b6000620002b18482850162000271565b91505092915050565b600081519050919050565b7f4e487b7100000000000000000000000000000000000000000000000000000000600052604160045260246000fd5b7f4e487b7100000000000000000000000000000000000000000000000000000000600052602260045260246000fd5b600060028204905060018216806200033c57607f821691505b602082108103620003525762000351620002f4565b5b50919050565b60008190508160005260206000209050919050565b60006020601f8301049050919050565b600082821b905092915050565b600060088302620003bc7fffffffffffffffffffffffffffffffffffffffffffffffffffffffffffffffff826200037d565b620003c886836200037d565b95508019841693508086168417925050509392505050565b6000819050919050565b6000819050919050565b6000620004156200040f6200040984620003e0565b620003ea565b620003e0565b9050919050565b6000819050919050565b6200043183620003f4565b6200044962000440826200041c565b8484546200038a565b825550505050565b600090565b6200046062000451565b6200046d81848462000426565b505050565b5b8181101562000495576200048960008262000456565b60018101905062000473565b5050565b601f821115620004e457620004ae8162000358565b620004b9846200036d565b81016020851015620004c9578190505b620004e1620004d8856200036d565b83018262000472565b50505b505050565b600082821c905092915050565b60006200050960001984600802620004e9565b1980831691505092915050565b6000620005248383620004f6565b9150826002028217905092915050565b6200053f82620002ba565b67ffffffffffffffff8111156200055b576200055a620002c5565b5b62000567825462000323565b6200057482828562000499565b600060209050601f831160018114620005ac576000841562000597578287015190505b620005a3858262000516565b86555062000613565b601f198416620005bc8662000358565b60005b82811015620005e657848901518255600182019150602085019450602081019050620005bf565b8683101562000606578489015162000602601f891682620004f6565b8355505b6001600288020188555050505b505050505050565b620006268162000243565b82525050565b60006020820190506200064360008301846200061b565b92915050565b6126c980620006596000396000f3fe608060405234801561001057600080fd5b50600436106101165760003560e01c8063715018a6116100a2578063b88d4fde11610071578063b88d4fde146102cd578063c87b56dd146102e9578063d204c45e14610319578063e985e9c514610349578063f2fde38b1461037957610116565b8063715018a61461026b5780638da5cb5b1461027557806395d89b4114610293578063a22cb465146102b157610116565b806323b872dd116100e957806323b872dd146101b557806324822514146101d157806342842e0e146101ef5780636352211e1461020b57806370a082311461023b57610116565b806301ffc9a71461011b57806306fdde031461014b578063081812fc14610169578063095ea7b314610199575b600080fd5b61013560048036038101906101309190611b21565b610395565b6040516101429190611b69565b60405180910390f35b6101536103a7565b6040516101609190611c14565b60405180910390f35b610183600480360381019061017e9190611c6c565b610439565b6040516101909190611cda565b60405180910390f35b6101b360048036038101906101ae9190611d21565b610455565b005b6101cf60048036038101906101ca9190611d61565b61046b565b005b6101d961056d565b6040516101e69190611dc3565b60405180910390f35b61020960048036038101906102049190611d61565b610573565b005b61022560048036038101906102209190611c6c565b610593565b6040516102329190611cda565b60405180910390f35b61025560048036038101906102509190611dde565b6105a5565b6040516102629190611dc3565b60405180910390f35b61027361065f565b005b61027d610673565b60405161028a9190611cda565b60405180910390f35b61029b61069d565b6040516102a89190611c14565b60405180910390f35b6102cb60048036038101906102c69190611e37565b61072f565b005b6102e760048036038101906102e29190611fac565b610745565b005b61030360048036038101906102fe9190611c6c565b61076a565b6040516103109190611c14565b60405180910390f35b610333600480360381019061032e91906120d0565b61077c565b6040516103409190611dc3565b60405180910390f35b610363600480360381019061035e919061212c565b6107b6565b6040516103709190611b69565b60405180910390f35b610393600480360381019061038e9190611dde565b61084a565b005b60006103a0826108d0565b9050919050565b6060600080546103b69061219b565b80601f01602080910402602001604051908101604052809291908181526020018280546103e29061219b565b801561042f5780601f106104045761010080835404028352916020019161042f565b820191906000526020600020905b81548152906001019060200180831161041257829003601f168201915b5050505050905090565b600061044482610931565b5061044e826109b9565b9050919050565b61046782826104626109f6565b6109fe565b5050565b600073ffffffffffffffffffffffffffffffffffffffff168273ffffffffffffffffffffffffffffffffffffffff16036104dd5760006040517f64a0ae920000000000000000000000000000000000000000000000000000000081526004016104d49190611cda565b60405180910390fd5b60006104f183836104ec6109f6565b610a10565b90508373ffffffffffffffffffffffffffffffffffffffff168173ffffffffffffffffffffffffffffffffffffffff1614610567578382826040517f64283d7b00000000000000000000000000000000000000000000000000000000815260040161055e939291906121cc565b60405180910390fd5b50505050565b60085481565b61058e83838360405180602001604052806000815250610745565b505050565b600061059e82610931565b9050919050565b60008073ffffffffffffffffffffffffffffffffffffffff168273ffffffffffffffffffffffffffffffffffffffff16036106185760006040517f89c62b6400000000000000000000000000000000000000000000000000000000815260040161060f9190611cda565b60405180910390fd5b600360008373ffffffffffffffffffffffffffffffffffffffff1673ffffffffffffffffffffffffffffffffffffffff168152602001908152602001600020549050919050565b610667610c2a565b6106716000610cb1565b565b6000600760009054906101000a900473ffffffffffffffffffffffffffffffffffffffff16905090565b6060600180546106ac9061219b565b80601f01602080910402602001604051908101604052809291908181526020018280546106d89061219b565b80156107255780601f106106fa57610100808354040283529160200191610725565b820191906000526020600020905b81548152906001019060200180831161070857829003601f168201915b5050505050905090565b61074161073a6109f6565b8383610d77565b5050565b61075084848461046b565b61076461075b6109f6565b85858585610ee6565b50505050565b606061077582611097565b9050919050565b6000806008600081548092919061079290612232565b9190505590506107a284826111aa565b6107ac81846111c8565b8091505092915050565b6000600560008473ffffffffffffffffffffffffffffffffffffffff1673ffffffffffffffffffffffffffffffffffffffff16815260200190815260200160002060008373ffffffffffffffffffffffffffffffffffffffff1673ffffffffffffffffffffffffffffffffffffffff16815260200190815260200160002060009054906101000a900460ff16905092915050565b610852610c2a565b600073ffffffffffffffffffffffffffffffffffffffff168173ffffffffffffffffffffffffffffffffffffffff16036108c45760006040517f1e4fbdf70000000000000000000000000000000000000000000000000000000081526004016108bb9190611cda565b60405180910390fd5b6108cd81610cb1565b50565b6000634906490660e01b7bffffffffffffffffffffffffffffffffffffffffffffffffffffffff1916827bffffffffffffffffffffffffffffffffffffffffffffffffffffffff1916148061092a575061092982611224565b5b9050919050565b60008061093d83611306565b9050600073ffffffffffffffffffffffffffffffffffffffff168173ffffffffffffffffffffffffffffffffffffffff16036109b057826040517f7e2732890000000000000000000000000000000000000000000000000000000081526004016109a79190611dc3565b60405180910390fd5b80915050919050565b60006004600083815260200190815260200160002060009054906101000a900473ffffffffffffffffffffffffffffffffffffffff169050919050565b600033905090565b610a0b8383836001611343565b505050565b600080610a1c84611306565b9050600073ffffffffffffffffffffffffffffffffffffffff168373ffffffffffffffffffffffffffffffffffffffff1614610a5e57610a5d818486611508565b5b600073ffffffffffffffffffffffffffffffffffffffff168173ffffffffffffffffffffffffffffffffffffffff1614610aef57610aa0600085600080611343565b6001600360008373ffffffffffffffffffffffffffffffffffffffff1673ffffffffffffffffffffffffffffffffffffffff168152602001908152602001600020600082825403925050819055505b600073ffffffffffffffffffffffffffffffffffffffff168573ffffffffffffffffffffffffffffffffffffffff1614610b72576001600360008773ffffffffffffffffffffffffffffffffffffffff1673ffffffffffffffffffffffffffffffffffffffff168152602001908152602001600020600082825401925050819055505b846002600086815260200190815260200160002060006101000a81548173ffffffffffffffffffffffffffffffffffffffff021916908373ffffffffffffffffffffffffffffffffffffffff160217905550838573ffffffffffffffffffffffffffffffffffffffff168273ffffffffffffffffffffffffffffffffffffffff167fddf252ad1be2c89b69c2b068fc378daa952ba7f163c4a11628f55a4df523b3ef60405160405180910390a4809150509392505050565b610c326109f6565b73ffffffffffffffffffffffffffffffffffffffff16610c50610673565b73ffffffffffffffffffffffffffffffffffffffff1614610caf57610c736109f6565b6040517f118cdaa7000000000000000000000000000000000000000000000000000000008152600401610ca69190611cda565b60405180910390fd5b565b6000600760009054906101000a900473ffffffffffffffffffffffffffffffffffffffff16905081600760006101000a81548173ffffffffffffffffffffffffffffffffffffffff021916908373ffffffffffffffffffffffffffffffffffffffff1602179055508173ffffffffffffffffffffffffffffffffffffffff168173ffffffffffffffffffffffffffffffffffffffff167f8be0079c531659141344cd1fd0a4f28419497f9722a3daafe3b4186f6b6457e060405160405180910390a35050565b600073ffffffffffffffffffffffffffffffffffffffff168273ffffffffffffffffffffffffffffffffffffffff1603610de857816040517f5b08ba18000000000000000000000000000000000000000000000000000000008152600401610ddf9190611cda565b60405180910390fd5b80600560008573ffffffffffffffffffffffffffffffffffffffff1673ffffffffffffffffffffffffffffffffffffffff16815260200190815260200160002060008473ffffffffffffffffffffffffffffffffffffffff1673ffffffffffffffffffffffffffffffffffffffff16815260200190815260200160002060006101000a81548160ff0219169083151502179055508173ffffffffffffffffffffffffffffffffffffffff168373ffffffffffffffffffffffffffffffffffffffff167f17307eab39ab6107e8899845ad3d59bd9653f200f220920489ca2b5937696c3183604051610ed99190611b69565b60405180910390a3505050565b60008373ffffffffffffffffffffffffffffffffffffffff163b1115611090578273ffffffffffffffffffffffffffffffffffffffff1663150b7a02868685856040518563ffffffff1660e01b8152600401610f4594939291906122cf565b6020604051808303816000875af1925050508015610f8157506040513d601f19601f82011682018060405250810190610f7e9190612330565b60015b611005573d8060008114610fb1576040519150601f19603f3d011682016040523d82523d6000602084013e610fb6565b606091505b506000815103610ffd57836040517f64a0ae92000000000000000000000000000000000000000000000000000000008152600401610ff49190611cda565b60405180910390fd5b805181602001fd5b63150b7a0260e01b7bffffffffffffffffffffffffffffffffffffffffffffffffffffffff1916817bffffffffffffffffffffffffffffffffffffffffffffffffffffffff19161461108e57836040517f64a0ae920000000000000000000000000000000000000000000000000000000081526004016110859190611cda565b60405180910390fd5b505b5050505050565b60606110a282610931565b5060006006600084815260200190815260200160002080546110c39061219b565b80601f01602080910402602001604051908101604052809291908181526020018280546110ef9061219b565b801561113c5780601f106111115761010080835404028352916020019161113c565b820191906000526020600020905b81548152906001019060200180831161111f57829003601f168201915b50505050509050600061114d6115cc565b905060008151036111625781925050506111a5565b60008251111561119757808260405160200161117f929190612399565b604051602081830303815290604052925050506111a5565b6111a0846115e3565b925050505b919050565b6111c482826040518060200160405280600081525061164c565b5050565b806006600084815260200190815260200160002090816111e89190612569565b507ff8e1a15aba9398e019f0b49df1a4fde98ee17ae345cb5f6b5e2c27f5033e8ce7826040516112189190611dc3565b60405180910390a15050565b60007f80ac58cd000000000000000000000000000000000000000000000000000000007bffffffffffffffffffffffffffffffffffffffffffffffffffffffff1916827bffffffffffffffffffffffffffffffffffffffffffffffffffffffff191614806112ef57507f5b5e139f000000000000000000000000000000000000000000000000000000007bffffffffffffffffffffffffffffffffffffffffffffffffffffffff1916827bffffffffffffffffffffffffffffffffffffffffffffffffffffffff1916145b806112ff57506112fe82611670565b5b9050919050565b60006002600083815260200190815260200160002060009054906101000a900473ffffffffffffffffffffffffffffffffffffffff169050919050565b808061137c5750600073ffffffffffffffffffffffffffffffffffffffff168273ffffffffffffffffffffffffffffffffffffffff1614155b156114b057600061138c84610931565b9050600073ffffffffffffffffffffffffffffffffffffffff168373ffffffffffffffffffffffffffffffffffffffff16141580156113f757508273ffffffffffffffffffffffffffffffffffffffff168173ffffffffffffffffffffffffffffffffffffffff1614155b801561140a575061140881846107b6565b155b1561144c57826040517fa9fbf51f0000000000000000000000000000000000000000000000000000000081526004016114439190611cda565b60405180910390fd5b81156114ae57838573ffffffffffffffffffffffffffffffffffffffff168273ffffffffffffffffffffffffffffffffffffffff167f8c5be1e5ebec7d5bd14f71427d1e84f3dd0314c0f7b2291e5b200ac8c7c3b92560405160405180910390a45b505b836004600085815260200190815260200160002060006101000a81548173ffffffffffffffffffffffffffffffffffffffff021916908373ffffffffffffffffffffffffffffffffffffffff16021790555050505050565b6115138383836116da565b6115c757600073ffffffffffffffffffffffffffffffffffffffff168373ffffffffffffffffffffffffffffffffffffffff160361158857806040517f7e27328900000000000000000000000000000000000000000000000000000000815260040161157f9190611dc3565b60405180910390fd5b81816040517f177e802f0000000000000000000000000000000000000000000000000000000081526004016115be92919061263b565b60405180910390fd5b505050565b606060405180602001604052806000815250905090565b60606115ee82610931565b5060006115f96115cc565b905060008151116116195760405180602001604052806000815250611644565b806116238461179b565b604051602001611634929190612399565b6040516020818303038152906040525b915050919050565b6116568383611869565b61166b6116616109f6565b6000858585610ee6565b505050565b60007f01ffc9a7000000000000000000000000000000000000000000000000000000007bffffffffffffffffffffffffffffffffffffffffffffffffffffffff1916827bffffffffffffffffffffffffffffffffffffffffffffffffffffffff1916149050919050565b60008073ffffffffffffffffffffffffffffffffffffffff168373ffffffffffffffffffffffffffffffffffffffff161415801561179257508273ffffffffffffffffffffffffffffffffffffffff168473ffffffffffffffffffffffffffffffffffffffff161480611753575061175284846107b6565b5b8061179157508273ffffffffffffffffffffffffffffffffffffffff16611779836109b9565b73ffffffffffffffffffffffffffffffffffffffff16145b5b90509392505050565b6060600060016117aa84611962565b01905060008167ffffffffffffffff8111156117c9576117c8611e81565b5b6040519080825280601f01601f1916602001820160405280156117fb5781602001600182028036833780820191505090505b509050600082602001820190505b60011561185e578080600190039150507f3031323334353637383961626364656600000000000000000000000000000000600a86061a8153600a858161185257611851612664565b5b04945060008503611809575b819350505050919050565b600073ffffffffffffffffffffffffffffffffffffffff168273ffffffffffffffffffffffffffffffffffffffff16036118db5760006040517f64a0ae920000000000000000000000000000000000000000000000000000000081526004016118d29190611cda565b60405180910390fd5b60006118e983836000610a10565b9050600073ffffffffffffffffffffffffffffffffffffffff168173ffffffffffffffffffffffffffffffffffffffff161461195d5760006040517f73c6ac6e0000000000000000000000000000000000000000000000000000000081526004016119549190611cda565b60405180910390fd5b505050565b600080600090507a184f03e93ff9f4daa797ed6e38ed64bf6a1f01000000000000000083106119c0577a184f03e93ff9f4daa797ed6e38ed64bf6a1f01000000000000000083816119b6576119b5612664565b5b0492506040810190505b6d04ee2d6d415b85acef810000000083106119fd576d04ee2d6d415b85acef810000000083816119f3576119f2612664565b5b0492506020810190505b662386f26fc100008310611a2c57662386f26fc100008381611a2257611a21612664565b5b0492506010810190505b6305f5e1008310611a55576305f5e1008381611a4b57611a4a612664565b5b0492506008810190505b6127108310611a7a576127108381611a7057611a6f612664565b5b0492506004810190505b60648310611a9d5760648381611a9357611a92612664565b5b0492506002810190505b600a8310611aac576001810190505b80915050919050565b6000604051905090565b600080fd5b600080fd5b60007fffffffff0000000000000000000000000000000000000000000000000000000082169050919050565b611afe81611ac9565b8114611b0957600080fd5b50565b600081359050611b1b81611af5565b92915050565b600060208284031215611b3757611b36611abf565b5b6000611b4584828501611b0c565b91505092915050565b60008115159050919050565b611b6381611b4e565b82525050565b6000602082019050611b7e6000830184611b5a565b92915050565b600081519050919050565b600082825260208201905092915050565b60005b83811015611bbe578082015181840152602081019050611ba3565b60008484015250505050565b6000601f19601f8301169050919050565b6000611be682611b84565b611bf08185611b8f565b9350611c00818560208601611ba0565b611c0981611bca565b840191505092915050565b60006020820190508181036000830152611c2e8184611bdb565b905092915050565b6000819050919050565b611c4981611c36565b8114611c5457600080fd5b50565b600081359050611c6681611c40565b92915050565b600060208284031215611c8257611c81611abf565b5b6000611c9084828501611c57565b91505092915050565b600073ffffffffffffffffffffffffffffffffffffffff82169050919050565b6000611cc482611c99565b9050919050565b611cd481611cb9565b82525050565b6000602082019050611cef6000830184611ccb565b92915050565b611cfe81611cb9565b8114611d0957600080fd5b50565b600081359050611d1b81611cf5565b92915050565b60008060408385031215611d3857611d37611abf565b5b6000611d4685828601611d0c565b9250506020611d5785828601611c57565b9150509250929050565b600080600060608486031215611d7a57611d79611abf565b5b6000611d8886828701611d0c565b9350506020611d9986828701611d0c565b9250506040611daa86828701611c57565b9150509250925092565b611dbd81611c36565b82525050565b6000602082019050611dd86000830184611db4565b92915050565b600060208284031215611df457611df3611abf565b5b6000611e0284828501611d0c565b91505092915050565b611e1481611b4e565b8114611e1f57600080fd5b50565b600081359050611e3181611e0b565b92915050565b60008060408385031215611e4e57611e4d611abf565b5b6000611e5c85828601611d0c565b9250506020611e6d85828601611e22565b9150509250929050565b600080fd5b600080fd5b7f4e487b7100000000000000000000000000000000000000000000000000000000600052604160045260246000fd5b611eb982611bca565b810181811067ffffffffffffffff82111715611ed857611ed7611e81565b5b80604052505050565b6000611eeb611ab5565b9050611ef78282611eb0565b919050565b600067ffffffffffffffff821115611f1757611f16611e81565b5b611f2082611bca565b9050602081019050919050565b82818337600083830152505050565b6000611f4f611f4a84611efc565b611ee1565b905082815260208101848484011115611f6b57611f6a611e7c565b5b611f76848285611f2d565b509392505050565b600082601f830112611f9357611f92611e77565b5b8135611fa3848260208601611f3c565b91505092915050565b60008060008060808587031215611fc657611fc5611abf565b5b6000611fd487828801611d0c565b9450506020611fe587828801611d0c565b9350506040611ff687828801611c57565b925050606085013567ffffffffffffffff81111561201757612016611ac4565b5b61202387828801611f7e565b91505092959194509250565b600067ffffffffffffffff82111561204a57612049611e81565b5b61205382611bca565b9050602081019050919050565b600061207361206e8461202f565b611ee1565b90508281526020810184848401111561208f5761208e611e7c565b5b61209a848285611f2d565b509392505050565b600082601f8301126120b7576120b6611e77565b5b81356120c7848260208601612060565b91505092915050565b600080604083850312156120e7576120e6611abf565b5b60006120f585828601611d0c565b925050602083013567ffffffffffffffff81111561211657612115611ac4565b5b612122858286016120a2565b9150509250929050565b6000806040838503121561214357612142611abf565b5b600061215185828601611d0c565b925050602061216285828601611d0c565b9150509250929050565b7f4e487b7100000000000000000000000000000000000000000000000000000000600052602260045260246000fd5b600060028204905060018216806121b357607f821691505b6020821081036121c6576121c561216c565b5b50919050565b60006060820190506121e16000830186611ccb565b6121ee6020830185611db4565b6121fb6040830184611ccb565b949350505050565b7f4e487b7100000000000000000000000000000000000000000000000000000000600052601160045260246000fd5b600061223d82611c36565b91507fffffffffffffffffffffffffffffffffffffffffffffffffffffffffffffffff820361226f5761226e612203565b5b600182019050919050565b600081519050919050565b600082825260208201905092915050565b60006122a18261227a565b6122ab8185612285565b93506122bb818560208601611ba0565b6122c481611bca565b840191505092915050565b60006080820190506122e46000830187611ccb565b6122f16020830186611ccb565b6122fe6040830185611db4565b81810360608301526123108184612296565b905095945050505050565b60008151905061232a81611af5565b92915050565b60006020828403121561234657612345611abf565b5b60006123548482850161231b565b91505092915050565b600081905092915050565b600061237382611b84565b61237d818561235d565b935061238d818560208601611ba0565b80840191505092915050565b60006123a58285612368565b91506123b18284612368565b91508190509392505050565b60008190508160005260206000209050919050565b60006020601f8301049050919050565b600082821b905092915050565b60006008830261241f7fffffffffffffffffffffffffffffffffffffffffffffffffffffffffffffffff826123e2565b61242986836123e2565b95508019841693508086168417925050509392505050565b6000819050919050565b600061246661246161245c84611c36565b612441565b611c36565b9050919050565b6000819050919050565b6124808361244b565b61249461248c8261246d565b8484546123ef565b825550505050565b600090565b6124a961249c565b6124b4818484612477565b505050565b5b818110156124d8576124cd6000826124a1565b6001810190506124ba565b5050565b601f82111561251d576124ee816123bd565b6124f7846123d2565b81016020851015612506578190505b61251a612512856123d2565b8301826124b9565b50505b505050565b600082821c905092915050565b600061254060001984600802612522565b1980831691505092915050565b6000612559838361252f565b9150826002028217905092915050565b61257282611b84565b67ffffffffffffffff81111561258b5761258a611e81565b5b612595825461219b565b6125a08282856124dc565b600060209050601f8311600181146125d357600084156125c1578287015190505b6125cb858261254d565b865550612633565b601f1984166125e1866123bd565b60005b82811015612609578489015182556001820191506020850194506020810190506125e4565b868310156126265784890151612622601f89168261252f565b8355505b6001600288020188555050505b505050505050565b60006040820190506126506000830185611ccb565b61265d6020830184611db4565b9392505050565b7f4e487b7100000000000000000000000000000000000000000000000000000000600052601260045260246000fdfea2646970667358221220b0e4ed5d8852bc8829a42dded520c10c602aba96bf2787956e5df84fea5ae86264736f6c63430008140033","linkReferences":{}},"methodIdentifiers":{"_tokenId()":"24822514","approve(address,uint256)":"095ea7b3","balanceOf(address)":"70a08231","getApproved(uint256)":"081812fc","isApprovedForAll(address,address)":"e985e9c5","name()":"06fdde03","owner()":"8da5cb5b","ownerOf(uint256)":"6352211e","renounceOwnership()":"715018a6","safeMint(address,string)":"d204c45e","safeTransferFrom(address,address,uint256)":"42842e0e","safeTransferFrom(address,address,uint256,bytes)":"b88d4fde","setApprovalForAll(address,bool)":"a22cb465","supportsInterface(bytes4)":"01ffc9a7","symbol()":"95d89b41","tokenURI(uint256)":"c87b56dd","transferFrom(address,address,uint256)":"23b872dd","transferOwnership(address)":"f2fde38b"},"id":19}