{
    "abi": [
        {
            "type": "constructor",
            "inputs": [
                {
                    "name": "initialOwner",
                    "type": "address",
                    "internalType": "address"
                }
            ],
            "stateMutability": "nonpayable"
        },
        {
            "type": "function",
            "name": "_tokenId",
            "inputs": [],
            "outputs": [
                {
                    "name": "",
                    "type": "uint256",
                    "internalType": "uint256"
                }
            ],
            "stateMutability": "view"
        },
        {
            "type": "function",
            "name": "approve",
            "inputs": [
                {
                    "name": "to",
                    "type": "address",
                    "internalType": "address"
                },
                {
                    "name": "tokenId",
                    "type": "uint256",
                    "internalType": "uint256"
                }
            ],
            "outputs": [],
            "stateMutability": "nonpayable"
        },
        {
            "type": "function",
            "name": "balanceOf",
            "inputs": [
                {
                    "name": "owner",
                    "type": "address",
                    "internalType": "address"
                }
            ],
            "outputs": [
                {
                    "name": "",
                    "type": "uint256",
                    "internalType": "uint256"
                }
            ],
            "stateMutability": "view"
        },
        {
            "type": "function",
            "name": "getApproved",
            "inputs": [
                {
                    "name": "tokenId",
                    "type": "uint256",
                    "internalType": "uint256"
                }
            ],
            "outputs": [
                {
                    "name": "",
                    "type": "address",
                    "internalType": "address"
                }
            ],
            "stateMutability": "view"
        },
        {
            "type": "function",
            "name": "isApprovedForAll",
            "inputs": [
                {
                    "name": "owner",
                    "type": "address",
                    "internalType": "address"
                },
                {
                    "name": "operator",
                    "type": "address",
                    "internalType": "address"
                }
            ],
            "outputs": [
                {
                    "name": "",
                    "type": "bool",
                    "internalType": "bool"
                }
            ],
            "stateMutability": "view"
        },
        {
            "type": "function",
            "name": "name",
            "inputs": [],
            "outputs": [
                {
                    "name": "",
                    "type": "string",
                    "internalType": "string"
                }
            ],
            "stateMutability": "view"
        },
        {
            "type": "function",
            "name": "owner",
            "inputs": [],
            "outputs": [
                {
                    "name": "",
                    "type": "address",
                    "internalType": "address"
                }
            ],
            "stateMutability": "view"
        },
        {
            "type": "function",
            "name": "ownerOf",
            "inputs": [
                {
                    "name": "tokenId",
                    "type": "uint256",
                    "internalType": "uint256"
                }
            ],
            "outputs": [
                {
                    "name": "",
                    "type": "address",
                    "internalType": "address"
                }
            ],
            "stateMutability": "view"
        },
        {
            "type": "function",
            "name": "renounceOwnership",
            "inputs": [],
            "outputs": [],
            "stateMutability": "nonpayable"
        },
        {
            "type": "function",
            "name": "safeMint",
            "inputs": [
                {
                    "name": "to",
                    "type": "address",
                    "internalType": "address"
                },
                {
                    "name": "uri",
                    "type": "string",
                    "internalType": "string"
                }
            ],
            "outputs": [
                {
                    "name": "",
                    "type": "uint256",
                    "internalType": "uint256"
                }
            ],
            "stateMutability": "nonpayable"
        },
        {
            "type": "function",
            "name": "safeTransferFrom",
            "inputs": [
                {
                    "name": "from",
                    "type": "address",
                    "internalType": "address"
                },
                {
                    "name": "to",
                    "type": "address",
                    "internalType": "address"
                },
                {
                    "name": "tokenId",
                    "type": "uint256",
                    "internalType": "uint256"
                }
            ],
            "outputs": [],
            "stateMutability": "nonpayable"
        },
        {
            "type": "function",
            "name": "safeTransferFrom",
            "inputs": [
                {
                    "name": "from",
                    "type": "address",
                    "internalType": "address"
                },
                {
                    "name": "to",
                    "type": "address",
                    "internalType": "address"
                },
                {
                    "name": "tokenId",
                    "type": "uint256",
                    "internalType": "uint256"
                },
                {
                    "name": "data",
                    "type": "bytes",
                    "internalType": "bytes"
                }
            ],
            "outputs": [],
            "stateMutability": "nonpayable"
        },
        {
            "type": "function",
            "name": "setApprovalForAll",
            "inputs": [
                {
                    "name": "operator",
                    "type": "address",
                    "internalType": "address"
                },
                {
                    "name": "approved",
                    "type": "bool",
                    "internalType": "bool"
                }
            ],
            "outputs": [],
            "stateMutability": "nonpayable"
        },
        {
            "type": "function",
            "name": "supportsInterface",
            "inputs": [
                {
                    "name": "interfaceId",
                    "type": "bytes4",
                    "internalType": "bytes4"
                }
            ],
            "outputs": [
                {
                    "name": "",
                    "type": "bool",
                    "internalType": "bool"
                }
            ],
            "stateMutability": "view"
        },
        {
            "type": "function",
            "name": "symbol",
            "inputs": [],
            "outputs": [
                {
                    "name": "",
                    "type": "string",
                    "internalType": "string"
                }
            ],
            "stateMutability": "view"
        },
        {
            "type": "function",
            "name": "tokenURI",
            "inputs": [
                {
                    "name": "tokenId",
                    "type": "uint256",
                    "internalType": "uint256"
                }
            ],
            "outputs": [
                {
                    "name": "",
                    "type": "string",
                    "internalType": "string"
                }
            ],
            "stateMutability": "view"
        },
        {
            "type": "function",
            "name": "transferFrom",
            "inputs": [
                {
                    "name": "from",
                    "type": "address",
                    "internalType": "address"
                },
                {
                    "name": "to",
                    "type": "address",
                    "internalType": "address"
                },
                {
                    "name": "tokenId",
                    "type": "uint256",
                    "internalType": "uint256"
                }
            ],
            "outputs": [],
            "stateMutability": "nonpayable"
        },
        {
            "type": "function",
            "name": "transferOwnership",
            "inputs": [
                {
                    "name": "newOwner",
                    "type": "address",
                    "internalType": "address"
                }
            ],
            "outputs": [],
            "stateMutability": "nonpayable"
        },
        {
            "type": "event",
            "name": "Approval",
            "inputs": [
                {
                    "name": "owner",
                    "type": "address",
                    "indexed": true,
                    "internalType": "address"
                },
                {
                    "name": "approved",
                    "type": "address",
                    "indexed": true,
                    "internalType": "address"
                },
                {
                    "name": "tokenId",
                    "type": "uint256",
                    "indexed": true,
                    "internalType": "uint256"
                }
            ],
            "anonymous": false
        },
        {
            "type": "event",
            "name": "ApprovalForAll",
            "inputs": [
                {
                    "name": "owner",
                    "type": "address",
                    "indexed": true,
                    "internalType": "address"
                },
                {
                    "name": "operator",
                    "type": "address",
                    "indexed": true,
                    "internalType": "address"
                },
                {
                    "name": "approved",
                    "type": "bool",
                    "indexed": false,
                    "internalType": "bool"
                }
            ],
            "anonymous": false
        },
        {
            "type": "event",
            "name": "BatchMetadataUpdate",
            "inputs": [
                {
                    "name": "_fromTokenId",
                    "type": "uint256",
                    "indexed": false,
                    "internalType": "uint256"
                },
                {
                    "name": "_toTokenId",
                    "type": "uint256",
                    "indexed": false,
                    "internalType": "uint256"
                }
            ],
            "anonymous": false
        },
        {
            "type": "event",
            "name": "MetadataUpdate",
            "inputs": [
                {
                    "name": "_tokenId",
                    "type": "uint256",
                    "indexed": false,
                    "internalType": "uint256"
                }
            ],
            "anonymous": false
        },
        {
            "type": "event",
            "name": "OwnershipTransferred",
            "inputs": [
                {
                    "name": "previousOwner",
                    "type": "address",
                    "indexed": true,
                    "internalType": "address"
                },
                {
                    "name": "newOwner",
                    "type": "address",
                    "indexed": true,
                    "internalType": "address"
                }
            ],
            "anonymous": false
        },
        {
            "type": "event",
            "name": "Transfer",
            "inputs": [
                {
                    "name": "from",
                    "type": "address",
                    "indexed": true,
                    "internalType": "address"
                },
                {
                    "name": "to",
                    "type": "address",
                    "indexed": true,
                    "internalType": "address"
                },
                {
                    "name": "tokenId",
                    "type": "uint256",
                    "indexed": true,
                    "internalType": "uint256"
                }
            ],
            "anonymous": false
        },
        {
            "type": "error",
            "name": "ERC721IncorrectOwner",
            "inputs": [
                {
                    "name": "sender",
                    "type": "address",
                    "internalType": "address"
                },
                {
                    "name": "tokenId",
                    "type": "uint256",
                    "internalType": "uint256"
                },
                {
                    "name": "owner",
                    "type": "address",
                    "internalType": "address"
                }
            ]
        },
        {
            "type": "error",
            "name": "ERC721InsufficientApproval",
            "inputs": [
                {
                    "name": "operator",
                    "type": "address",
                    "internalType": "address"
                },
                {
                    "name": "tokenId",
                    "type": "uint256",
                    "internalType": "uint256"
                }
            ]
        },
        {
            "type": "error",
            "name": "ERC721InvalidApprover",
            "inputs": [
                {
                    "name": "approver",
                    "type": "address",
                    "internalType": "address"
                }
            ]
        },
        {
            "type": "error",
            "name": "ERC721InvalidOperator",
            "inputs": [
                {
                    "name": "operator",
                    "type": "address",
                    "internalType": "address"
                }
            ]
        },
        {
            "type": "error",
            "name": "ERC721InvalidOwner",
            "inputs": [
                {
                    "name": "owner",
                    "type": "address",
                    "internalType": "address"
                }
            ]
        },
        {
            "type": "error",
            "name": "ERC721InvalidReceiver",
            "inputs": [
                {
                    "name": "receiver",
                    "type": "address",
                    "internalType": "address"
                }
            ]
        },
        {
            "type": "error",
            "name": "ERC721InvalidSender",
            "inputs": [
                {
                    "name": "sender",
                    "type": "address",
                    "internalType": "address"
                }
            ]
        },
        {
            "type": "error",
            "name": "ERC721NonexistentToken",
            "inputs": [
                {
                    "name": "tokenId",
                    "type": "uint256",
                    "internalType": "uint256"
                }
            ]
        },
        {
            "type": "error",
            "name": "OwnableInvalidOwner",
            "inputs": [
                {
                    "name": "owner",
                    "type": "address",
                    "internalType": "address"
                }
            ]
        },
        {
            "type": "error",
            "name": "OwnableUnauthorizedAccount",
            "inputs": [
                {
                    "name": "account",
                    "type": "address",
                    "internalType": "address"
                }
            ]
        }
    ],
    "bytecode": {
        "object": "0x608060405234801562000010575f80fd5b5060405162002c2138038062002c2183398181016040528101906200003691906200027c565b806040518060400160405280600781526020017f566f7563686572000000000000000000000000000000000000000000000000008152506040518060400160405280600381526020017f5643460000000000000000000000000000000000000000000000000000000000815250815f9081620000b3919062000510565b508060019081620000c5919062000510565b5050505f73ffffffffffffffffffffffffffffffffffffffff168173ffffffffffffffffffffffffffffffffffffffff16036200013b575f6040517f1e4fbdf700000000000000000000000000000000000000000000000000000000815260040162000132919062000605565b60405180910390fd5b6200014c816200015460201b60201c565b505062000620565b5f60075f9054906101000a900473ffffffffffffffffffffffffffffffffffffffff1690508160075f6101000a81548173ffffffffffffffffffffffffffffffffffffffff021916908373ffffffffffffffffffffffffffffffffffffffff1602179055508173ffffffffffffffffffffffffffffffffffffffff168173ffffffffffffffffffffffffffffffffffffffff167f8be0079c531659141344cd1fd0a4f28419497f9722a3daafe3b4186f6b6457e060405160405180910390a35050565b5f80fd5b5f73ffffffffffffffffffffffffffffffffffffffff82169050919050565b5f62000246826200021b565b9050919050565b62000258816200023a565b811462000263575f80fd5b50565b5f8151905062000276816200024d565b92915050565b5f6020828403121562000294576200029362000217565b5b5f620002a38482850162000266565b91505092915050565b5f81519050919050565b7f4e487b71000000000000000000000000000000000000000000000000000000005f52604160045260245ffd5b7f4e487b71000000000000000000000000000000000000000000000000000000005f52602260045260245ffd5b5f60028204905060018216806200032857607f821691505b6020821081036200033e576200033d620002e3565b5b50919050565b5f819050815f5260205f209050919050565b5f6020601f8301049050919050565b5f82821b905092915050565b5f60088302620003a27fffffffffffffffffffffffffffffffffffffffffffffffffffffffffffffffff8262000365565b620003ae868362000365565b95508019841693508086168417925050509392505050565b5f819050919050565b5f819050919050565b5f620003f8620003f2620003ec84620003c6565b620003cf565b620003c6565b9050919050565b5f819050919050565b6200041383620003d8565b6200042b6200042282620003ff565b84845462000371565b825550505050565b5f90565b6200044162000433565b6200044e81848462000408565b505050565b5b818110156200047557620004695f8262000437565b60018101905062000454565b5050565b601f821115620004c4576200048e8162000344565b620004998462000356565b81016020851015620004a9578190505b620004c1620004b88562000356565b83018262000453565b50505b505050565b5f82821c905092915050565b5f620004e65f1984600802620004c9565b1980831691505092915050565b5f620005008383620004d5565b9150826002028217905092915050565b6200051b82620002ac565b67ffffffffffffffff811115620005375762000536620002b6565b5b62000543825462000310565b6200055082828562000479565b5f60209050601f83116001811462000586575f841562000571578287015190505b6200057d8582620004f3565b865550620005ec565b601f198416620005968662000344565b5f5b82811015620005bf5784890151825560018201915060208501945060208101905062000598565b86831015620005df5784890151620005db601f891682620004d5565b8355505b6001600288020188555050505b505050505050565b620005ff816200023a565b82525050565b5f6020820190506200061a5f830184620005f4565b92915050565b6125f3806200062e5f395ff3fe608060405234801561000f575f80fd5b5060043610610114575f3560e01c8063715018a6116100a0578063b88d4fde1161006f578063b88d4fde146102ca578063c87b56dd146102e6578063d204c45e14610316578063e985e9c514610346578063f2fde38b1461037657610114565b8063715018a6146102685780638da5cb5b1461027257806395d89b4114610290578063a22cb465146102ae57610114565b806323b872dd116100e757806323b872dd146101b257806324822514146101ce57806342842e0e146101ec5780636352211e1461020857806370a082311461023857610114565b806301ffc9a71461011857806306fdde0314610148578063081812fc14610166578063095ea7b314610196575b5f80fd5b610132600480360381019061012d9190611aac565b610392565b60405161013f9190611af1565b60405180910390f35b6101506103a3565b60405161015d9190611b94565b60405180910390f35b610180600480360381019061017b9190611be7565b610432565b60405161018d9190611c51565b60405180910390f35b6101b060048036038101906101ab9190611c94565b61044d565b005b6101cc60048036038101906101c79190611cd2565b610463565b005b6101d6610562565b6040516101e39190611d31565b60405180910390f35b61020660048036038101906102019190611cd2565b610568565b005b610222600480360381019061021d9190611be7565b610587565b60405161022f9190611c51565b60405180910390f35b610252600480360381019061024d9190611d4a565b610598565b60405161025f9190611d31565b60405180910390f35b61027061064e565b005b61027a610661565b6040516102879190611c51565b60405180910390f35b610298610689565b6040516102a59190611b94565b60405180910390f35b6102c860048036038101906102c39190611d9f565b610719565b005b6102e460048036038101906102df9190611f09565b61072f565b005b61030060048036038101906102fb9190611be7565b610754565b60405161030d9190611b94565b60405180910390f35b610330600480360381019061032b9190612027565b610766565b60405161033d9190611d31565b60405180910390f35b610360600480360381019061035b9190612081565b61079e565b60405161036d9190611af1565b60405180910390f35b610390600480360381019061038b9190611d4a565b61082c565b005b5f61039c826108b0565b9050919050565b60605f80546103b1906120ec565b80601f01602080910402602001604051908101604052809291908181526020018280546103dd906120ec565b80156104285780601f106103ff57610100808354040283529160200191610428565b820191905f5260205f20905b81548152906001019060200180831161040b57829003601f168201915b5050505050905090565b5f61043c82610910565b5061044682610996565b9050919050565b61045f828261045a6109cf565b6109d6565b5050565b5f73ffffffffffffffffffffffffffffffffffffffff168273ffffffffffffffffffffffffffffffffffffffff16036104d3575f6040517f64a0ae920000000000000000000000000000000000000000000000000000000081526004016104ca9190611c51565b60405180910390fd5b5f6104e683836104e16109cf565b6109e8565b90508373ffffffffffffffffffffffffffffffffffffffff168173ffffffffffffffffffffffffffffffffffffffff161461055c578382826040517f64283d7b0000000000000000000000000000000000000000000000000000000081526004016105539392919061211c565b60405180910390fd5b50505050565b60085481565b61058283838360405180602001604052805f81525061072f565b505050565b5f61059182610910565b9050919050565b5f8073ffffffffffffffffffffffffffffffffffffffff168273ffffffffffffffffffffffffffffffffffffffff1603610609575f6040517f89c62b640000000000000000000000000000000000000000000000000000000081526004016106009190611c51565b60405180910390fd5b60035f8373ffffffffffffffffffffffffffffffffffffffff1673ffffffffffffffffffffffffffffffffffffffff1681526020019081526020015f20549050919050565b610656610bf3565b61065f5f610c7a565b565b5f60075f9054906101000a900473ffffffffffffffffffffffffffffffffffffffff16905090565b606060018054610698906120ec565b80601f01602080910402602001604051908101604052809291908181526020018280546106c4906120ec565b801561070f5780601f106106e65761010080835404028352916020019161070f565b820191905f5260205f20905b8154815290600101906020018083116106f257829003601f168201915b5050505050905090565b61072b6107246109cf565b8383610d3d565b5050565b61073a848484610463565b61074e6107456109cf565b85858585610ea6565b50505050565b606061075f82611052565b9050919050565b5f8060085f81548092919061077a9061217e565b91905055905061078a848261115d565b610794818461117a565b8091505092915050565b5f60055f8473ffffffffffffffffffffffffffffffffffffffff1673ffffffffffffffffffffffffffffffffffffffff1681526020019081526020015f205f8373ffffffffffffffffffffffffffffffffffffffff1673ffffffffffffffffffffffffffffffffffffffff1681526020019081526020015f205f9054906101000a900460ff16905092915050565b610834610bf3565b5f73ffffffffffffffffffffffffffffffffffffffff168173ffffffffffffffffffffffffffffffffffffffff16036108a4575f6040517f1e4fbdf700000000000000000000000000000000000000000000000000000000815260040161089b9190611c51565b60405180910390fd5b6108ad81610c7a565b50565b5f634906490660e01b7bffffffffffffffffffffffffffffffffffffffffffffffffffffffff1916827bffffffffffffffffffffffffffffffffffffffffffffffffffffffff191614806109095750610908826111d4565b5b9050919050565b5f8061091b836112b5565b90505f73ffffffffffffffffffffffffffffffffffffffff168173ffffffffffffffffffffffffffffffffffffffff160361098d57826040517f7e2732890000000000000000000000000000000000000000000000000000000081526004016109849190611d31565b60405180910390fd5b80915050919050565b5f60045f8381526020019081526020015f205f9054906101000a900473ffffffffffffffffffffffffffffffffffffffff169050919050565b5f33905090565b6109e383838360016112ee565b505050565b5f806109f3846112b5565b90505f73ffffffffffffffffffffffffffffffffffffffff168373ffffffffffffffffffffffffffffffffffffffff1614610a3457610a338184866114ad565b5b5f73ffffffffffffffffffffffffffffffffffffffff168173ffffffffffffffffffffffffffffffffffffffff1614610abf57610a735f855f806112ee565b600160035f8373ffffffffffffffffffffffffffffffffffffffff1673ffffffffffffffffffffffffffffffffffffffff1681526020019081526020015f205f82825403925050819055505b5f73ffffffffffffffffffffffffffffffffffffffff168573ffffffffffffffffffffffffffffffffffffffff1614610b3e57600160035f8773ffffffffffffffffffffffffffffffffffffffff1673ffffffffffffffffffffffffffffffffffffffff1681526020019081526020015f205f82825401925050819055505b8460025f8681526020019081526020015f205f6101000a81548173ffffffffffffffffffffffffffffffffffffffff021916908373ffffffffffffffffffffffffffffffffffffffff160217905550838573ffffffffffffffffffffffffffffffffffffffff168273ffffffffffffffffffffffffffffffffffffffff167fddf252ad1be2c89b69c2b068fc378daa952ba7f163c4a11628f55a4df523b3ef60405160405180910390a4809150509392505050565b610bfb6109cf565b73ffffffffffffffffffffffffffffffffffffffff16610c19610661565b73ffffffffffffffffffffffffffffffffffffffff1614610c7857610c3c6109cf565b6040517f118cdaa7000000000000000000000000000000000000000000000000000000008152600401610c6f9190611c51565b60405180910390fd5b565b5f60075f9054906101000a900473ffffffffffffffffffffffffffffffffffffffff1690508160075f6101000a81548173ffffffffffffffffffffffffffffffffffffffff021916908373ffffffffffffffffffffffffffffffffffffffff1602179055508173ffffffffffffffffffffffffffffffffffffffff168173ffffffffffffffffffffffffffffffffffffffff167f8be0079c531659141344cd1fd0a4f28419497f9722a3daafe3b4186f6b6457e060405160405180910390a35050565b5f73ffffffffffffffffffffffffffffffffffffffff168273ffffffffffffffffffffffffffffffffffffffff1603610dad57816040517f5b08ba18000000000000000000000000000000000000000000000000000000008152600401610da49190611c51565b60405180910390fd5b8060055f8573ffffffffffffffffffffffffffffffffffffffff1673ffffffffffffffffffffffffffffffffffffffff1681526020019081526020015f205f8473ffffffffffffffffffffffffffffffffffffffff1673ffffffffffffffffffffffffffffffffffffffff1681526020019081526020015f205f6101000a81548160ff0219169083151502179055508173ffffffffffffffffffffffffffffffffffffffff168373ffffffffffffffffffffffffffffffffffffffff167f17307eab39ab6107e8899845ad3d59bd9653f200f220920489ca2b5937696c3183604051610e999190611af1565b60405180910390a3505050565b5f8373ffffffffffffffffffffffffffffffffffffffff163b111561104b578273ffffffffffffffffffffffffffffffffffffffff1663150b7a02868685856040518563ffffffff1660e01b8152600401610f049493929190612217565b6020604051808303815f875af1925050508015610f3f57506040513d601f19601f82011682018060405250810190610f3c9190612275565b60015b610fc0573d805f8114610f6d576040519150601f19603f3d011682016040523d82523d5f602084013e610f72565b606091505b505f815103610fb857836040517f64a0ae92000000000000000000000000000000000000000000000000000000008152600401610faf9190611c51565b60405180910390fd5b805160208201fd5b63150b7a0260e01b7bffffffffffffffffffffffffffffffffffffffffffffffffffffffff1916817bffffffffffffffffffffffffffffffffffffffffffffffffffffffff19161461104957836040517f64a0ae920000000000000000000000000000000000000000000000000000000081526004016110409190611c51565b60405180910390fd5b505b5050505050565b606061105d82610910565b505f60065f8481526020019081526020015f20805461107b906120ec565b80601f01602080910402602001604051908101604052809291908181526020018280546110a7906120ec565b80156110f25780601f106110c9576101008083540402835291602001916110f2565b820191905f5260205f20905b8154815290600101906020018083116110d557829003601f168201915b505050505090505f611102611570565b90505f815103611116578192505050611158565b5f8251111561114a5780826040516020016111329291906122da565b60405160208183030381529060405292505050611158565b61115384611586565b925050505b919050565b611176828260405180602001604052805f8152506115ec565b5050565b8060065f8481526020019081526020015f209081611198919061249a565b507ff8e1a15aba9398e019f0b49df1a4fde98ee17ae345cb5f6b5e2c27f5033e8ce7826040516111c89190611d31565b60405180910390a15050565b5f7f80ac58cd000000000000000000000000000000000000000000000000000000007bffffffffffffffffffffffffffffffffffffffffffffffffffffffff1916827bffffffffffffffffffffffffffffffffffffffffffffffffffffffff1916148061129e57507f5b5e139f000000000000000000000000000000000000000000000000000000007bffffffffffffffffffffffffffffffffffffffffffffffffffffffff1916827bffffffffffffffffffffffffffffffffffffffffffffffffffffffff1916145b806112ae57506112ad8261160f565b5b9050919050565b5f60025f8381526020019081526020015f205f9054906101000a900473ffffffffffffffffffffffffffffffffffffffff169050919050565b808061132657505f73ffffffffffffffffffffffffffffffffffffffff168273ffffffffffffffffffffffffffffffffffffffff1614155b15611458575f61133584610910565b90505f73ffffffffffffffffffffffffffffffffffffffff168373ffffffffffffffffffffffffffffffffffffffff161415801561139f57508273ffffffffffffffffffffffffffffffffffffffff168173ffffffffffffffffffffffffffffffffffffffff1614155b80156113b257506113b0818461079e565b155b156113f457826040517fa9fbf51f0000000000000000000000000000000000000000000000000000000081526004016113eb9190611c51565b60405180910390fd5b811561145657838573ffffffffffffffffffffffffffffffffffffffff168273ffffffffffffffffffffffffffffffffffffffff167f8c5be1e5ebec7d5bd14f71427d1e84f3dd0314c0f7b2291e5b200ac8c7c3b92560405160405180910390a45b505b8360045f8581526020019081526020015f205f6101000a81548173ffffffffffffffffffffffffffffffffffffffff021916908373ffffffffffffffffffffffffffffffffffffffff16021790555050505050565b6114b8838383611678565b61156b575f73ffffffffffffffffffffffffffffffffffffffff168373ffffffffffffffffffffffffffffffffffffffff160361152c57806040517f7e2732890000000000000000000000000000000000000000000000000000000081526004016115239190611d31565b60405180910390fd5b81816040517f177e802f000000000000000000000000000000000000000000000000000000008152600401611562929190612569565b60405180910390fd5b505050565b606060405180602001604052805f815250905090565b606061159182610910565b505f61159b611570565b90505f8151116115b95760405180602001604052805f8152506115e4565b806115c384611738565b6040516020016115d49291906122da565b6040516020818303038152906040525b915050919050565b6115f68383611802565b61160a6116016109cf565b5f858585610ea6565b505050565b5f7f01ffc9a7000000000000000000000000000000000000000000000000000000007bffffffffffffffffffffffffffffffffffffffffffffffffffffffff1916827bffffffffffffffffffffffffffffffffffffffffffffffffffffffff1916149050919050565b5f8073ffffffffffffffffffffffffffffffffffffffff168373ffffffffffffffffffffffffffffffffffffffff161415801561172f57508273ffffffffffffffffffffffffffffffffffffffff168473ffffffffffffffffffffffffffffffffffffffff1614806116f057506116ef848461079e565b5b8061172e57508273ffffffffffffffffffffffffffffffffffffffff1661171683610996565b73ffffffffffffffffffffffffffffffffffffffff16145b5b90509392505050565b60605f6001611746846118f5565b0190505f8167ffffffffffffffff81111561176457611763611de5565b5b6040519080825280601f01601f1916602001820160405280156117965781602001600182028036833780820191505090505b5090505f82602083010190505b6001156117f7578080600190039150507f3031323334353637383961626364656600000000000000000000000000000000600a86061a8153600a85816117ec576117eb612590565b5b0494505f85036117a3575b819350505050919050565b5f73ffffffffffffffffffffffffffffffffffffffff168273ffffffffffffffffffffffffffffffffffffffff1603611872575f6040517f64a0ae920000000000000000000000000000000000000000000000000000000081526004016118699190611c51565b60405180910390fd5b5f61187e83835f6109e8565b90505f73ffffffffffffffffffffffffffffffffffffffff168173ffffffffffffffffffffffffffffffffffffffff16146118f0575f6040517f73c6ac6e0000000000000000000000000000000000000000000000000000000081526004016118e79190611c51565b60405180910390fd5b505050565b5f805f90507a184f03e93ff9f4daa797ed6e38ed64bf6a1f0100000000000000008310611951577a184f03e93ff9f4daa797ed6e38ed64bf6a1f010000000000000000838161194757611946612590565b5b0492506040810190505b6d04ee2d6d415b85acef8100000000831061198e576d04ee2d6d415b85acef8100000000838161198457611983612590565b5b0492506020810190505b662386f26fc1000083106119bd57662386f26fc1000083816119b3576119b2612590565b5b0492506010810190505b6305f5e10083106119e6576305f5e10083816119dc576119db612590565b5b0492506008810190505b6127108310611a0b576127108381611a0157611a00612590565b5b0492506004810190505b60648310611a2e5760648381611a2457611a23612590565b5b0492506002810190505b600a8310611a3d576001810190505b80915050919050565b5f604051905090565b5f80fd5b5f80fd5b5f7fffffffff0000000000000000000000000000000000000000000000000000000082169050919050565b611a8b81611a57565b8114611a95575f80fd5b50565b5f81359050611aa681611a82565b92915050565b5f60208284031215611ac157611ac0611a4f565b5b5f611ace84828501611a98565b91505092915050565b5f8115159050919050565b611aeb81611ad7565b82525050565b5f602082019050611b045f830184611ae2565b92915050565b5f81519050919050565b5f82825260208201905092915050565b5f5b83811015611b41578082015181840152602081019050611b26565b5f8484015250505050565b5f601f19601f8301169050919050565b5f611b6682611b0a565b611b708185611b14565b9350611b80818560208601611b24565b611b8981611b4c565b840191505092915050565b5f6020820190508181035f830152611bac8184611b5c565b905092915050565b5f819050919050565b611bc681611bb4565b8114611bd0575f80fd5b50565b5f81359050611be181611bbd565b92915050565b5f60208284031215611bfc57611bfb611a4f565b5b5f611c0984828501611bd3565b91505092915050565b5f73ffffffffffffffffffffffffffffffffffffffff82169050919050565b5f611c3b82611c12565b9050919050565b611c4b81611c31565b82525050565b5f602082019050611c645f830184611c42565b92915050565b611c7381611c31565b8114611c7d575f80fd5b50565b5f81359050611c8e81611c6a565b92915050565b5f8060408385031215611caa57611ca9611a4f565b5b5f611cb785828601611c80565b9250506020611cc885828601611bd3565b9150509250929050565b5f805f60608486031215611ce957611ce8611a4f565b5b5f611cf686828701611c80565b9350506020611d0786828701611c80565b9250506040611d1886828701611bd3565b9150509250925092565b611d2b81611bb4565b82525050565b5f602082019050611d445f830184611d22565b92915050565b5f60208284031215611d5f57611d5e611a4f565b5b5f611d6c84828501611c80565b91505092915050565b611d7e81611ad7565b8114611d88575f80fd5b50565b5f81359050611d9981611d75565b92915050565b5f8060408385031215611db557611db4611a4f565b5b5f611dc285828601611c80565b9250506020611dd385828601611d8b565b9150509250929050565b5f80fd5b5f80fd5b7f4e487b71000000000000000000000000000000000000000000000000000000005f52604160045260245ffd5b611e1b82611b4c565b810181811067ffffffffffffffff82111715611e3a57611e39611de5565b5b80604052505050565b5f611e4c611a46565b9050611e588282611e12565b919050565b5f67ffffffffffffffff821115611e7757611e76611de5565b5b611e8082611b4c565b9050602081019050919050565b828183375f83830152505050565b5f611ead611ea884611e5d565b611e43565b905082815260208101848484011115611ec957611ec8611de1565b5b611ed4848285611e8d565b509392505050565b5f82601f830112611ef057611eef611ddd565b5b8135611f00848260208601611e9b565b91505092915050565b5f805f8060808587031215611f2157611f20611a4f565b5b5f611f2e87828801611c80565b9450506020611f3f87828801611c80565b9350506040611f5087828801611bd3565b925050606085013567ffffffffffffffff811115611f7157611f70611a53565b5b611f7d87828801611edc565b91505092959194509250565b5f67ffffffffffffffff821115611fa357611fa2611de5565b5b611fac82611b4c565b9050602081019050919050565b5f611fcb611fc684611f89565b611e43565b905082815260208101848484011115611fe757611fe6611de1565b5b611ff2848285611e8d565b509392505050565b5f82601f83011261200e5761200d611ddd565b5b813561201e848260208601611fb9565b91505092915050565b5f806040838503121561203d5761203c611a4f565b5b5f61204a85828601611c80565b925050602083013567ffffffffffffffff81111561206b5761206a611a53565b5b61207785828601611ffa565b9150509250929050565b5f806040838503121561209757612096611a4f565b5b5f6120a485828601611c80565b92505060206120b585828601611c80565b9150509250929050565b7f4e487b71000000000000000000000000000000000000000000000000000000005f52602260045260245ffd5b5f600282049050600182168061210357607f821691505b602082108103612116576121156120bf565b5b50919050565b5f60608201905061212f5f830186611c42565b61213c6020830185611d22565b6121496040830184611c42565b949350505050565b7f4e487b71000000000000000000000000000000000000000000000000000000005f52601160045260245ffd5b5f61218882611bb4565b91507fffffffffffffffffffffffffffffffffffffffffffffffffffffffffffffffff82036121ba576121b9612151565b5b600182019050919050565b5f81519050919050565b5f82825260208201905092915050565b5f6121e9826121c5565b6121f381856121cf565b9350612203818560208601611b24565b61220c81611b4c565b840191505092915050565b5f60808201905061222a5f830187611c42565b6122376020830186611c42565b6122446040830185611d22565b818103606083015261225681846121df565b905095945050505050565b5f8151905061226f81611a82565b92915050565b5f6020828403121561228a57612289611a4f565b5b5f61229784828501612261565b91505092915050565b5f81905092915050565b5f6122b482611b0a565b6122be81856122a0565b93506122ce818560208601611b24565b80840191505092915050565b5f6122e582856122aa565b91506122f182846122aa565b91508190509392505050565b5f819050815f5260205f209050919050565b5f6020601f8301049050919050565b5f82821b905092915050565b5f600883026123597fffffffffffffffffffffffffffffffffffffffffffffffffffffffffffffffff8261231e565b612363868361231e565b95508019841693508086168417925050509392505050565b5f819050919050565b5f61239e61239961239484611bb4565b61237b565b611bb4565b9050919050565b5f819050919050565b6123b783612384565b6123cb6123c3826123a5565b84845461232a565b825550505050565b5f90565b6123df6123d3565b6123ea8184846123ae565b505050565b5b8181101561240d576124025f826123d7565b6001810190506123f0565b5050565b601f82111561245257612423816122fd565b61242c8461230f565b8101602085101561243b578190505b61244f6124478561230f565b8301826123ef565b50505b505050565b5f82821c905092915050565b5f6124725f1984600802612457565b1980831691505092915050565b5f61248a8383612463565b9150826002028217905092915050565b6124a382611b0a565b67ffffffffffffffff8111156124bc576124bb611de5565b5b6124c682546120ec565b6124d1828285612411565b5f60209050601f831160018114612502575f84156124f0578287015190505b6124fa858261247f565b865550612561565b601f198416612510866122fd565b5f5b8281101561253757848901518255600182019150602085019450602081019050612512565b868310156125545784890151612550601f891682612463565b8355505b6001600288020188555050505b505050505050565b5f60408201905061257c5f830185611c42565b6125896020830184611d22565b9392505050565b7f4e487b71000000000000000000000000000000000000000000000000000000005f52601260045260245ffdfea264697066735822122043fcad63e60e12745089a352a49bf5fb1f6a1240964076243d377e83eacf357e64736f6c63430008140033",
        "linkReferences": {}
    },
    "methodIdentifiers": {
        "_tokenId()": "24822514",
        "approve(address,uint256)": "095ea7b3",
        "balanceOf(address)": "70a08231",
        "getApproved(uint256)": "081812fc",
        "isApprovedForAll(address,address)": "e985e9c5",
        "name()": "06fdde03",
        "owner()": "8da5cb5b",
        "ownerOf(uint256)": "6352211e",
        "renounceOwnership()": "715018a6",
        "safeMint(address,string)": "d204c45e",
        "safeTransferFrom(address,address,uint256)": "42842e0e",
        "safeTransferFrom(address,address,uint256,bytes)": "b88d4fde",
        "setApprovalForAll(address,bool)": "a22cb465",
        "supportsInterface(bytes4)": "01ffc9a7",
        "symbol()": "95d89b41",
        "tokenURI(uint256)": "c87b56dd",
        "transferFrom(address,address,uint256)": "23b872dd",
        "transferOwnership(address)": "f2fde38b"
    },
    "id": 35
}